{"abi":[{"type":"constructor","inputs":[],"stateMutability":"nonpayable"},{"type":"function","name":"blsRegistry","inputs":[],"outputs":[{"name":"","type":"address","internalType":"contract IBLSApkRegistry"}],"stateMutability":"view"},{"type":"function","name":"dappLinkAddress","inputs":[],"outputs":[{"name":"","type":"address","internalType":"address"}],"stateMutability":"view"},{"type":"function","name":"fulfillRandomWords","inputs":[{"name":"_requestId","type":"uint256","internalType":"uint256"},{"name":"_randomWords","type":"uint256[]","internalType":"uint256[]"},{"name":"msgHash","type":"bytes32","internalType":"bytes32"},{"name":"referenceBlockNumber","type":"uint256","internalType":"uint256"},{"name":"params","type":"tuple","internalType":"struct IBLSApkRegistry.VrfNoSignerAndSignature","components":[{"name":"nonSignerPubKeys","type":"tuple[]","internalType":"struct BN254.G1Point[]","components":[{"name":"X","type":"uint256","internalType":"uint256"},{"name":"Y","type":"uint256","internalType":"uint256"}]},{"name":"apkG2","type":"tuple","internalType":"struct BN254.G2Point","components":[{"name":"X","type":"uint256[2]","internalType":"uint256[2]"},{"name":"Y","type":"uint256[2]","internalType":"uint256[2]"}]},{"name":"sigma","type":"tuple","internalType":"struct BN254.G1Point","components":[{"name":"X","type":"uint256","internalType":"uint256"},{"name":"Y","type":"uint256","internalType":"uint256"}]},{"name":"totalDappLinkStake","type":"uint256","internalType":"uint256"},{"name":"totalBtcStake","type":"uint256","internalType":"uint256"}]}],"outputs":[],"stateMutability":"nonpayable"},{"type":"function","name":"getRequestStatus","inputs":[{"name":"_requestId","type":"uint256","internalType":"uint256"}],"outputs":[{"name":"fulfilled","type":"bool","internalType":"bool"},{"name":"randomWords","type":"uint256[]","internalType":"uint256[]"}],"stateMutability":"view"},{"type":"function","name":"initialize","inputs":[{"name":"initialOwner","type":"address","internalType":"address"},{"name":"_dappLinkAddress","type":"address","internalType":"address"},{"name":"_blsRegistry","type":"address","internalType":"address"}],"outputs":[],"stateMutability":"nonpayable"},{"type":"function","name":"lastRequestId","inputs":[],"outputs":[{"name":"","type":"uint256","internalType":"uint256"}],"stateMutability":"view"},{"type":"function","name":"owner","inputs":[],"outputs":[{"name":"","type":"address","internalType":"address"}],"stateMutability":"view"},{"type":"function","name":"renounceOwnership","inputs":[],"outputs":[],"stateMutability":"nonpayable"},{"type":"function","name":"requestIds","inputs":[{"name":"","type":"uint256","internalType":"uint256"}],"outputs":[{"name":"","type":"uint256","internalType":"uint256"}],"stateMutability":"view"},{"type":"function","name":"requestMapping","inputs":[{"name":"","type":"uint256","internalType":"uint256"}],"outputs":[{"name":"fulfilled","type":"bool","internalType":"bool"}],"stateMutability":"view"},{"type":"function","name":"requestRandomWords","inputs":[{"name":"_requestId","type":"uint256","internalType":"uint256"},{"name":"_numWords","type":"uint256","internalType":"uint256"}],"outputs":[],"stateMutability":"nonpayable"},{"type":"function","name":"setDappLink","inputs":[{"name":"_dappLinkAddress","type":"address","internalType":"address"}],"outputs":[],"stateMutability":"nonpayable"},{"type":"function","name":"transferOwnership","inputs":[{"name":"newOwner","type":"address","internalType":"address"}],"outputs":[],"stateMutability":"nonpayable"},{"type":"event","name":"FillRandomWords","inputs":[{"name":"requestId","type":"uint256","indexed":false,"internalType":"uint256"},{"name":"randomWords","type":"uint256[]","indexed":false,"internalType":"uint256[]"}],"anonymous":false},{"type":"event","name":"Initialized","inputs":[{"name":"version","type":"uint64","indexed":false,"internalType":"uint64"}],"anonymous":false},{"type":"event","name":"OwnershipTransferred","inputs":[{"name":"previousOwner","type":"address","indexed":true,"internalType":"address"},{"name":"newOwner","type":"address","indexed":true,"internalType":"address"}],"anonymous":false},{"type":"event","name":"RequestSent","inputs":[{"name":"requestId","type":"uint256","indexed":false,"internalType":"uint256"},{"name":"_numWords","type":"uint256","indexed":false,"internalType":"uint256"},{"name":"current","type":"address","indexed":false,"internalType":"address"}],"anonymous":false},{"type":"error","name":"InvalidInitialization","inputs":[]},{"type":"error","name":"NotInitializing","inputs":[]},{"type":"error","name":"OwnableInvalidOwner","inputs":[{"name":"owner","type":"address","internalType":"address"}]},{"type":"error","name":"OwnableUnauthorizedAccount","inputs":[{"name":"account","type":"address","internalType":"address"}]}],"bytecode":{"object":"0x608060405234801561001057600080fd5b5061001961001e565b6100d0565b7ff0c57e16840df040f15088dc2f81fe391c3923bec73e23a9662efc9c229c6a00805468010000000000000000900460ff161561006e5760405163f92ee8a960e01b815260040160405180910390fd5b80546001600160401b03908116146100cd5780546001600160401b0319166001600160401b0390811782556040519081527fc7f505b2f371ae2175ee4913f4499e1f2633a7b5936321eed1cdaeb6115181d29060200160405180910390a15b50565b610e37806100df6000396000f3fe608060405234801561001057600080fd5b50600436106100cf5760003560e01c806393e4b8801161008c578063d8a4676f11610066578063d8a4676f146101da578063f0c28a41146101fb578063f2fde38b1461020e578063fc2a88c31461022157600080fd5b806393e4b880146101a1578063996869d0146101b4578063c0c53b8b146101c757600080fd5b80631b565710146100d45780631b739ef1146100e9578063715018a6146100fc57806382e215ab146101045780638796ba8c1461013c5780638da5cb5b1461015d575b600080fd5b6100e76100e2366004610aa1565b61022a565b005b6100e76100f7366004610b79565b61038d565b6100e7610462565b610127610112366004610b9b565b60046020526000908152604090205460ff1681565b60405190151581526020015b60405180910390f35b61014f61014a366004610b9b565b610476565b604051908152602001610133565b7f9016d09d72d40fdae2fd8ceac6b6234c7706214fd39c1cd1e609a0528c199300546001600160a01b03165b6040516001600160a01b039091168152602001610133565b600354610189906001600160a01b031681565b6100e76101c2366004610bd0565b610497565b6100e76101d5366004610bf2565b6104c1565b6101ed6101e8366004610b9b565b610603565b604051610133929190610c71565b600254610189906001600160a01b031681565b6100e761021c366004610bd0565b610679565b61014f60015481565b6002546001600160a01b031633146102895760405162461bcd60e51b815260206004820152601860248201527f446170704c696e6b5652462e6f6e6c79446170704c696e6b000000000000000060448201526064015b60405180910390fd5b60035460405163041c37a160e21b81526001600160a01b0390911690631070de84906102bd90869086908690600401610cdf565b606060405180830381865afa1580156102da573d6000803e3d6000fd5b505050506040513d601f19601f820116820180604052508101906102fe9190610da0565b50506040805180820182526001808252602080830188815260008a815260048352949094208351815460ff1916901515178155935180519394936103499385019291909101906107e5565b509050507ff3cb4deb0441dd096356debf166f879d78cadc19e4b94053c8bea6d3940de93a858560405161037e929190610de8565b60405180910390a15050505050565b6103956106b7565b604080518082018252600080825282518181526020808201855280840191825286835260048152939091208251815460ff191690151517815590518051929391926103e692600185019201906107e5565b505060008054600180820183559180527f290decd9548b62a8d60345a988386fc84ba6bc95484008f6362f93160ef3e56301849055839055506040805183815260208101839052308183015290517fe697eb68c0228bd7d4e553246a2a86e8402d0895e45092ef8ae87b4cfd29f0169181900360600190a15050565b61046a6106b7565b6104746000610712565b565b6000818154811061048657600080fd5b600091825260209091200154905081565b61049f6106b7565b600280546001600160a01b0319166001600160a01b0392909216919091179055565b7ff0c57e16840df040f15088dc2f81fe391c3923bec73e23a9662efc9c229c6a008054600160401b810460ff16159067ffffffffffffffff166000811580156105075750825b905060008267ffffffffffffffff1660011480156105245750303b155b905081158015610532575080155b156105505760405163f92ee8a960e01b815260040160405180910390fd5b845467ffffffffffffffff19166001178555831561057a57845460ff60401b1916600160401b1785555b61058388610783565b600380546001600160a01b038089166001600160a01b03199283161790925560028054928a169290911691909117905583156105f957845460ff60401b19168555604051600181527fc7f505b2f371ae2175ee4913f4499e1f2633a7b5936321eed1cdaeb6115181d29060200160405180910390a15b5050505050505050565b600081815260046020908152604080832080546001909101805483518186028101860190945280845260609460ff90931693919283919083018282801561066957602002820191906000526020600020905b815481526020019060010190808311610655575b5050505050905091509150915091565b6106816106b7565b6001600160a01b0381166106ab57604051631e4fbdf760e01b815260006004820152602401610280565b6106b481610712565b50565b336106e97f9016d09d72d40fdae2fd8ceac6b6234c7706214fd39c1cd1e609a0528c199300546001600160a01b031690565b6001600160a01b0316146104745760405163118cdaa760e01b8152336004820152602401610280565b7f9016d09d72d40fdae2fd8ceac6b6234c7706214fd39c1cd1e609a0528c19930080546001600160a01b031981166001600160a01b03848116918217845560405192169182907f8be0079c531659141344cd1fd0a4f28419497f9722a3daafe3b4186f6b6457e090600090a3505050565b61078b610794565b6106b4816107dd565b7ff0c57e16840df040f15088dc2f81fe391c3923bec73e23a9662efc9c229c6a0054600160401b900460ff1661047457604051631afcd79f60e31b815260040160405180910390fd5b610681610794565b828054828255906000526020600020908101928215610820579160200282015b82811115610820578251825591602001919060010190610805565b5061082c929150610830565b5090565b5b8082111561082c5760008155600101610831565b634e487b7160e01b600052604160045260246000fd5b6040805190810167ffffffffffffffff8111828210171561087e5761087e610845565b60405290565b60405160a0810167ffffffffffffffff8111828210171561087e5761087e610845565b604051601f8201601f1916810167ffffffffffffffff811182821017156108d0576108d0610845565b604052919050565b600067ffffffffffffffff8211156108f2576108f2610845565b5060051b60200190565b60006040828403121561090e57600080fd5b61091661085b565b9050813581526020820135602082015292915050565b600082601f83011261093d57600080fd5b61094561085b565b80604084018581111561095757600080fd5b845b81811015610971578035845260209384019301610959565b509095945050505050565b60006080828403121561098e57600080fd5b61099661085b565b90506109a2838361092c565b81526109b1836040840161092c565b602082015292915050565b600061012082840312156109cf57600080fd5b6109d7610884565b9050813567ffffffffffffffff8111156109f057600080fd5b8201601f81018413610a0157600080fd5b80356020610a16610a11836108d8565b6108a7565b82815260069290921b83018101918181019087841115610a3557600080fd5b938201935b83851015610a5e57610a4c88866108fc565b82528282019150604085019450610a3a565b855250610a6d8686830161097c565b81850152505050610a818360a084016108fc565b604082015260e08201356060820152610100820135608082015292915050565b600080600080600060a08688031215610ab957600080fd5b8535945060208087013567ffffffffffffffff80821115610ad957600080fd5b818901915089601f830112610aed57600080fd5b8135610afb610a11826108d8565b81815260059190911b8301840190848101908c831115610b1a57600080fd5b938501935b82851015610b3857843582529385019390850190610b1f565b9850505060408901359550606089013594506080890135925080831115610b5e57600080fd5b5050610b6c888289016109bc565b9150509295509295909350565b60008060408385031215610b8c57600080fd5b50508035926020909101359150565b600060208284031215610bad57600080fd5b5035919050565b80356001600160a01b0381168114610bcb57600080fd5b919050565b600060208284031215610be257600080fd5b610beb82610bb4565b9392505050565b600080600060608486031215610c0757600080fd5b610c1084610bb4565b9250610c1e60208501610bb4565b9150610c2c60408501610bb4565b90509250925092565b60008151808452602080850194506020840160005b83811015610c6657815187529582019590820190600101610c4a565b509495945050505050565b8215158152604060208201526000610c8c6040830184610c35565b949350505050565b8060005b6002811015610cb7578151845260209384019390910190600101610c98565b50505050565b610cc8828251610c94565b6020810151610cda6040840182610c94565b505050565b838152600060208460208401526040606060408501526101808401855161012060608701528181518084526101a088019150602083019350600092505b80831015610d4d57610d3982855180518252602090810151910152565b928501926001929092019190840190610d1c565b5060208801519450610d626080880186610cbd565b604088015180516101008901526020015161012088015260608801516101408801526080909701516101609096019590955250939695505050505050565b6000808284036060811215610db457600080fd5b6040811215610dc257600080fd5b50610dcb61085b565b835181526020808501519082015260409093015192949293505050565b828152604060208201526000610c8c6040830184610c3556fea2646970667358221220be5dc8f2a3ea927ffe7b728906664cdafc70722a498d7516772de8406611878464736f6c63430008160033","linkReferences":{}},"methodIdentifiers":{"blsRegistry()":"93e4b880","dappLinkAddress()":"f0c28a41","fulfillRandomWords(uint256,uint256[],bytes32,uint256,((uint256,uint256)[],(uint256[2],uint256[2]),(uint256,uint256),uint256,uint256))":"1b565710","getRequestStatus(uint256)":"d8a4676f","initialize(address,address,address)":"c0c53b8b","lastRequestId()":"fc2a88c3","owner()":"8da5cb5b","renounceOwnership()":"715018a6","requestIds(uint256)":"8796ba8c","requestMapping(uint256)":"82e215ab","requestRandomWords(uint256,uint256)":"1b739ef1","setDappLink(address)":"996869d0","transferOwnership(address)":"f2fde38b"},"storageLayout":{"storage":[{"astId":43711,"contract":"src/contracts/vrf/DappLinkVRFManager.sol:DappLinkVRFManager","label":"requestIds","offset":0,"slot":"0","type":"t_array(t_uint256)dyn_storage"},{"astId":43713,"contract":"src/contracts/vrf/DappLinkVRFManager.sol:DappLinkVRFManager","label":"lastRequestId","offset":0,"slot":"1","type":"t_uint256"},{"astId":43715,"contract":"src/contracts/vrf/DappLinkVRFManager.sol:DappLinkVRFManager","label":"dappLinkAddress","offset":0,"slot":"2","type":"t_address"},{"astId":43718,"contract":"src/contracts/vrf/DappLinkVRFManager.sol:DappLinkVRFManager","label":"blsRegistry","offset":0,"slot":"3","type":"t_contract(IBLSApkRegistry)43854"},{"astId":43723,"contract":"src/contracts/vrf/DappLinkVRFManager.sol:DappLinkVRFManager","label":"requestMapping","offset":0,"slot":"4","type":"t_mapping(t_uint256,t_struct(RequestStatus)43708_storage)"},{"astId":43727,"contract":"src/contracts/vrf/DappLinkVRFManager.sol:DappLinkVRFManager","label":"slot","offset":0,"slot":"5","type":"t_array(t_uint256)100_storage"}],"types":{"t_address":{"encoding":"inplace","label":"address","numberOfBytes":"20"},"t_array(t_uint256)100_storage":{"encoding":"inplace","label":"uint256[100]","numberOfBytes":"3200","base":"t_uint256"},"t_array(t_uint256)dyn_storage":{"encoding":"dynamic_array","label":"uint256[]","numberOfBytes":"32","base":"t_uint256"},"t_bool":{"encoding":"inplace","label":"bool","numberOfBytes":"1"},"t_contract(IBLSApkRegistry)43854":{"encoding":"inplace","label":"contract IBLSApkRegistry","numberOfBytes":"20"},"t_mapping(t_uint256,t_struct(RequestStatus)43708_storage)":{"encoding":"mapping","key":"t_uint256","label":"mapping(uint256 => struct DappLinkVRFStorage.RequestStatus)","numberOfBytes":"32","value":"t_struct(RequestStatus)43708_storage"},"t_struct(RequestStatus)43708_storage":{"encoding":"inplace","label":"struct DappLinkVRFStorage.RequestStatus","numberOfBytes":"64","members":[{"astId":43704,"contract":"src/contracts/vrf/DappLinkVRFManager.sol:DappLinkVRFManager","label":"fulfilled","offset":0,"slot":"0","type":"t_bool"},{"astId":43707,"contract":"src/contracts/vrf/DappLinkVRFManager.sol:DappLinkVRFManager","label":"randomWords","offset":0,"slot":"1","type":"t_array(t_uint256)dyn_storage"}]},"t_uint256":{"encoding":"inplace","label":"uint256","numberOfBytes":"32"}}},"id":48}