{"abi":[{"type":"constructor","inputs":[],"stateMutability":"nonpayable"},{"type":"function","name":"blsRegistry","inputs":[],"outputs":[{"name":"","type":"address","internalType":"contract IBLSApkRegistry"}],"stateMutability":"view"},{"type":"function","name":"dappLinkAddress","inputs":[],"outputs":[{"name":"","type":"address","internalType":"address"}],"stateMutability":"view"},{"type":"function","name":"fulfillRandomWords","inputs":[{"name":"_requestId","type":"uint256","internalType":"uint256"},{"name":"_randomWords","type":"uint256[]","internalType":"uint256[]"}],"outputs":[],"stateMutability":"nonpayable"},{"type":"function","name":"getRequestStatus","inputs":[{"name":"_requestId","type":"uint256","internalType":"uint256"}],"outputs":[{"name":"fulfilled","type":"bool","internalType":"bool"},{"name":"randomWords","type":"uint256[]","internalType":"uint256[]"}],"stateMutability":"view"},{"type":"function","name":"initialize","inputs":[{"name":"initialOwner","type":"address","internalType":"address"},{"name":"_dappLinkAddress","type":"address","internalType":"address"},{"name":"_blsRegistry","type":"address","internalType":"address"}],"outputs":[],"stateMutability":"nonpayable"},{"type":"function","name":"lastRequestId","inputs":[],"outputs":[{"name":"","type":"uint256","internalType":"uint256"}],"stateMutability":"view"},{"type":"function","name":"owner","inputs":[],"outputs":[{"name":"","type":"address","internalType":"address"}],"stateMutability":"view"},{"type":"function","name":"renounceOwnership","inputs":[],"outputs":[],"stateMutability":"nonpayable"},{"type":"function","name":"requestIds","inputs":[{"name":"","type":"uint256","internalType":"uint256"}],"outputs":[{"name":"","type":"uint256","internalType":"uint256"}],"stateMutability":"view"},{"type":"function","name":"requestMapping","inputs":[{"name":"","type":"uint256","internalType":"uint256"}],"outputs":[{"name":"fulfilled","type":"bool","internalType":"bool"}],"stateMutability":"view"},{"type":"function","name":"requestRandomWords","inputs":[{"name":"_requestId","type":"uint256","internalType":"uint256"},{"name":"_numWords","type":"uint256","internalType":"uint256"}],"outputs":[],"stateMutability":"nonpayable"},{"type":"function","name":"setDappLink","inputs":[{"name":"_dappLinkAddress","type":"address","internalType":"address"}],"outputs":[],"stateMutability":"nonpayable"},{"type":"function","name":"transferOwnership","inputs":[{"name":"newOwner","type":"address","internalType":"address"}],"outputs":[],"stateMutability":"nonpayable"},{"type":"event","name":"FillRandomWords","inputs":[{"name":"requestId","type":"uint256","indexed":false,"internalType":"uint256"},{"name":"randomWords","type":"uint256[]","indexed":false,"internalType":"uint256[]"}],"anonymous":false},{"type":"event","name":"Initialized","inputs":[{"name":"version","type":"uint64","indexed":false,"internalType":"uint64"}],"anonymous":false},{"type":"event","name":"OwnershipTransferred","inputs":[{"name":"previousOwner","type":"address","indexed":true,"internalType":"address"},{"name":"newOwner","type":"address","indexed":true,"internalType":"address"}],"anonymous":false},{"type":"event","name":"RequestSent","inputs":[{"name":"requestId","type":"uint256","indexed":false,"internalType":"uint256"},{"name":"_numWords","type":"uint256","indexed":false,"internalType":"uint256"},{"name":"current","type":"address","indexed":false,"internalType":"address"}],"anonymous":false},{"type":"error","name":"InvalidInitialization","inputs":[]},{"type":"error","name":"NotInitializing","inputs":[]},{"type":"error","name":"OwnableInvalidOwner","inputs":[{"name":"owner","type":"address","internalType":"address"}]},{"type":"error","name":"OwnableUnauthorizedAccount","inputs":[{"name":"account","type":"address","internalType":"address"}]}],"bytecode":{"object":"0x608060405234801561001057600080fd5b5061001961001e565b6100d0565b7ff0c57e16840df040f15088dc2f81fe391c3923bec73e23a9662efc9c229c6a00805468010000000000000000900460ff161561006e5760405163f92ee8a960e01b815260040160405180910390fd5b80546001600160401b03908116146100cd5780546001600160401b0319166001600160401b0390811782556040519081527fc7f505b2f371ae2175ee4913f4499e1f2633a7b5936321eed1cdaeb6115181d29060200160405180910390a15b50565b610a0e806100df6000396000f3fe608060405234801561001057600080fd5b50600436106100cf5760003560e01c806393e4b8801161008c578063d8a4676f11610066578063d8a4676f146101da578063f0c28a41146101fb578063f2fde38b1461020e578063fc2a88c31461022157600080fd5b806393e4b880146101a1578063996869d0146101b4578063c0c53b8b146101c757600080fd5b80631b739ef1146100d457806338ba4614146100e9578063715018a6146100fc57806382e215ab146101045780638796ba8c1461013c5780638da5cb5b1461015d575b600080fd5b6100e76100e23660046107c4565b61022a565b005b6100e76100f73660046107fc565b610304565b6100e76103e1565b6101276101123660046108c6565b60046020526000908152604090205460ff1681565b60405190151581526020015b60405180910390f35b61014f61014a3660046108c6565b6103f5565b604051908152602001610133565b7f9016d09d72d40fdae2fd8ceac6b6234c7706214fd39c1cd1e609a0528c199300546001600160a01b03165b6040516001600160a01b039091168152602001610133565b600354610189906001600160a01b031681565b6100e76101c23660046108fb565b610416565b6100e76101d536600461091d565b610440565b6101ed6101e83660046108c6565b610582565b60405161013392919061099c565b600254610189906001600160a01b031681565b6100e761021c3660046108fb565b6105f8565b61014f60015481565b610232610636565b604080518082018252600080825282518181526020808201855280840191825286835260048152939091208251815460ff191690151517815590518051929391926102839260018501920190610764565b505060008054600180820183559180527f290decd9548b62a8d60345a988386fc84ba6bc95484008f6362f93160ef3e5630184905583905550604080518381526020810183905230918101919091527fe697eb68c0228bd7d4e553246a2a86e8402d0895e45092ef8ae87b4cfd29f016906060015b60405180910390a15050565b6002546001600160a01b031633146103635760405162461bcd60e51b815260206004820152601860248201527f446170704c696e6b5652462e6f6e6c79446170704c696e6b000000000000000060448201526064015b60405180910390fd5b60408051808201825260018082526020808301858152600087815260048352949094208351815460ff1916901515178155935180519394936103ac938501929190910190610764565b509050507ff3cb4deb0441dd096356debf166f879d78cadc19e4b94053c8bea6d3940de93a82826040516102f89291906109bf565b6103e9610636565b6103f36000610691565b565b6000818154811061040557600080fd5b600091825260209091200154905081565b61041e610636565b600280546001600160a01b0319166001600160a01b0392909216919091179055565b7ff0c57e16840df040f15088dc2f81fe391c3923bec73e23a9662efc9c229c6a008054600160401b810460ff16159067ffffffffffffffff166000811580156104865750825b905060008267ffffffffffffffff1660011480156104a35750303b155b9050811580156104b1575080155b156104cf5760405163f92ee8a960e01b815260040160405180910390fd5b845467ffffffffffffffff1916600117855583156104f957845460ff60401b1916600160401b1785555b61050288610702565b600380546001600160a01b038089166001600160a01b03199283161790925560028054928a1692909116919091179055831561057857845460ff60401b19168555604051600181527fc7f505b2f371ae2175ee4913f4499e1f2633a7b5936321eed1cdaeb6115181d29060200160405180910390a15b5050505050505050565b600081815260046020908152604080832080546001909101805483518186028101860190945280845260609460ff9093169391928391908301828280156105e857602002820191906000526020600020905b8154815260200190600101908083116105d4575b5050505050905091509150915091565b610600610636565b6001600160a01b03811661062a57604051631e4fbdf760e01b81526000600482015260240161035a565b61063381610691565b50565b336106687f9016d09d72d40fdae2fd8ceac6b6234c7706214fd39c1cd1e609a0528c199300546001600160a01b031690565b6001600160a01b0316146103f35760405163118cdaa760e01b815233600482015260240161035a565b7f9016d09d72d40fdae2fd8ceac6b6234c7706214fd39c1cd1e609a0528c19930080546001600160a01b031981166001600160a01b03848116918217845560405192169182907f8be0079c531659141344cd1fd0a4f28419497f9722a3daafe3b4186f6b6457e090600090a3505050565b61070a610713565b6106338161075c565b7ff0c57e16840df040f15088dc2f81fe391c3923bec73e23a9662efc9c229c6a0054600160401b900460ff166103f357604051631afcd79f60e31b815260040160405180910390fd5b610600610713565b82805482825590600052602060002090810192821561079f579160200282015b8281111561079f578251825591602001919060010190610784565b506107ab9291506107af565b5090565b5b808211156107ab57600081556001016107b0565b600080604083850312156107d757600080fd5b50508035926020909101359150565b634e487b7160e01b600052604160045260246000fd5b6000806040838503121561080f57600080fd5b8235915060208084013567ffffffffffffffff8082111561082f57600080fd5b818601915086601f83011261084357600080fd5b813581811115610855576108556107e6565b8060051b604051601f19603f8301168101818110858211171561087a5761087a6107e6565b60405291825284820192508381018501918983111561089857600080fd5b938501935b828510156108b65784358452938501939285019261089d565b8096505050505050509250929050565b6000602082840312156108d857600080fd5b5035919050565b80356001600160a01b03811681146108f657600080fd5b919050565b60006020828403121561090d57600080fd5b610916826108df565b9392505050565b60008060006060848603121561093257600080fd5b61093b846108df565b9250610949602085016108df565b9150610957604085016108df565b90509250925092565b60008151808452602080850194506020840160005b8381101561099157815187529582019590820190600101610975565b509495945050505050565b82151581526040602082015260006109b76040830184610960565b949350505050565b8281526040602082015260006109b7604083018461096056fea2646970667358221220518cb57a5b19618354180270f288446574d7b756efbe1e9ca7eabb7d00948ce564736f6c63430008160033","linkReferences":{}},"methodIdentifiers":{"blsRegistry()":"93e4b880","dappLinkAddress()":"f0c28a41","fulfillRandomWords(uint256,uint256[])":"38ba4614","getRequestStatus(uint256)":"d8a4676f","initialize(address,address,address)":"c0c53b8b","lastRequestId()":"fc2a88c3","owner()":"8da5cb5b","renounceOwnership()":"715018a6","requestIds(uint256)":"8796ba8c","requestMapping(uint256)":"82e215ab","requestRandomWords(uint256,uint256)":"1b739ef1","setDappLink(address)":"996869d0","transferOwnership(address)":"f2fde38b"},"storageLayout":{"storage":[{"astId":47673,"contract":"src/contracts/vrf/DappLinkVRFManager.sol:DappLinkVRFManager","label":"requestIds","offset":0,"slot":"0","type":"t_array(t_uint256)dyn_storage"},{"astId":47675,"contract":"src/contracts/vrf/DappLinkVRFManager.sol:DappLinkVRFManager","label":"lastRequestId","offset":0,"slot":"1","type":"t_uint256"},{"astId":47677,"contract":"src/contracts/vrf/DappLinkVRFManager.sol:DappLinkVRFManager","label":"dappLinkAddress","offset":0,"slot":"2","type":"t_address"},{"astId":47680,"contract":"src/contracts/vrf/DappLinkVRFManager.sol:DappLinkVRFManager","label":"blsRegistry","offset":0,"slot":"3","type":"t_contract(IBLSApkRegistry)47816"},{"astId":47685,"contract":"src/contracts/vrf/DappLinkVRFManager.sol:DappLinkVRFManager","label":"requestMapping","offset":0,"slot":"4","type":"t_mapping(t_uint256,t_struct(RequestStatus)47670_storage)"},{"astId":47689,"contract":"src/contracts/vrf/DappLinkVRFManager.sol:DappLinkVRFManager","label":"slot","offset":0,"slot":"5","type":"t_array(t_uint256)100_storage"}],"types":{"t_address":{"encoding":"inplace","label":"address","numberOfBytes":"20"},"t_array(t_uint256)100_storage":{"encoding":"inplace","label":"uint256[100]","numberOfBytes":"3200","base":"t_uint256"},"t_array(t_uint256)dyn_storage":{"encoding":"dynamic_array","label":"uint256[]","numberOfBytes":"32","base":"t_uint256"},"t_bool":{"encoding":"inplace","label":"bool","numberOfBytes":"1"},"t_contract(IBLSApkRegistry)47816":{"encoding":"inplace","label":"contract IBLSApkRegistry","numberOfBytes":"20"},"t_mapping(t_uint256,t_struct(RequestStatus)47670_storage)":{"encoding":"mapping","key":"t_uint256","label":"mapping(uint256 => struct DappLinkVRFStorage.RequestStatus)","numberOfBytes":"32","value":"t_struct(RequestStatus)47670_storage"},"t_struct(RequestStatus)47670_storage":{"encoding":"inplace","label":"struct DappLinkVRFStorage.RequestStatus","numberOfBytes":"64","members":[{"astId":47666,"contract":"src/contracts/vrf/DappLinkVRFManager.sol:DappLinkVRFManager","label":"fulfilled","offset":0,"slot":"0","type":"t_bool"},{"astId":47669,"contract":"src/contracts/vrf/DappLinkVRFManager.sol:DappLinkVRFManager","label":"randomWords","offset":0,"slot":"1","type":"t_array(t_uint256)dyn_storage"}]},"t_uint256":{"encoding":"inplace","label":"uint256","numberOfBytes":"32"}}},"id":53}