{"abi":[{"type":"constructor","inputs":[],"stateMutability":"nonpayable"},{"type":"function","name":"PUBKEY_REGISTRATION_TYPEHASH","inputs":[],"outputs":[{"name":"","type":"bytes32","internalType":"bytes32"}],"stateMutability":"view"},{"type":"function","name":"addOrRemoveBlsRegisterWhitelist","inputs":[{"name":"register","type":"address","internalType":"address"},{"name":"isAdd","type":"bool","internalType":"bool"}],"outputs":[],"stateMutability":"nonpayable"},{"type":"function","name":"apkHistory","inputs":[{"name":"","type":"uint256","internalType":"uint256"}],"outputs":[{"name":"apkHash","type":"bytes24","internalType":"bytes24"},{"name":"updateBlockNumber","type":"uint32","internalType":"uint32"},{"name":"nextUpdateBlockNumber","type":"uint32","internalType":"uint32"}],"stateMutability":"view"},{"type":"function","name":"blsRegisterWhitelist","inputs":[{"name":"","type":"address","internalType":"address"}],"outputs":[{"name":"","type":"bool","internalType":"bool"}],"stateMutability":"view"},{"type":"function","name":"checkSignatures","inputs":[{"name":"msgHash","type":"bytes32","internalType":"bytes32"},{"name":"referenceBlockNumber","type":"uint256","internalType":"uint256"},{"name":"params","type":"tuple","internalType":"struct IBLSApkRegistry.VrfNoSignerAndSignature","components":[{"name":"nonSignerPubKeys","type":"tuple[]","internalType":"struct BN254.G1Point[]","components":[{"name":"X","type":"uint256","internalType":"uint256"},{"name":"Y","type":"uint256","internalType":"uint256"}]},{"name":"apkG2","type":"tuple","internalType":"struct BN254.G2Point","components":[{"name":"X","type":"uint256[2]","internalType":"uint256[2]"},{"name":"Y","type":"uint256[2]","internalType":"uint256[2]"}]},{"name":"sigma","type":"tuple","internalType":"struct BN254.G1Point","components":[{"name":"X","type":"uint256","internalType":"uint256"},{"name":"Y","type":"uint256","internalType":"uint256"}]},{"name":"totalDappLinkStake","type":"uint256","internalType":"uint256"},{"name":"totalBtcStake","type":"uint256","internalType":"uint256"}]}],"outputs":[{"name":"","type":"tuple","internalType":"struct IBLSApkRegistry.StakeTotals","components":[{"name":"totalDappLinkStake","type":"uint256","internalType":"uint256"},{"name":"totalBtcStake","type":"uint256","internalType":"uint256"}]},{"name":"","type":"bytes32","internalType":"bytes32"}],"stateMutability":"view"},{"type":"function","name":"currentApk","inputs":[],"outputs":[{"name":"X","type":"uint256","internalType":"uint256"},{"name":"Y","type":"uint256","internalType":"uint256"}],"stateMutability":"view"},{"type":"function","name":"deregisterOperator","inputs":[{"name":"operator","type":"address","internalType":"address"}],"outputs":[],"stateMutability":"nonpayable"},{"type":"function","name":"eip712Domain","inputs":[],"outputs":[{"name":"fields","type":"bytes1","internalType":"bytes1"},{"name":"name","type":"string","internalType":"string"},{"name":"version","type":"string","internalType":"string"},{"name":"chainId","type":"uint256","internalType":"uint256"},{"name":"verifyingContract","type":"address","internalType":"address"},{"name":"salt","type":"bytes32","internalType":"bytes32"},{"name":"extensions","type":"uint256[]","internalType":"uint256[]"}],"stateMutability":"view"},{"type":"function","name":"getPubkeyHash","inputs":[{"name":"operator","type":"address","internalType":"address"}],"outputs":[{"name":"","type":"bytes32","internalType":"bytes32"}],"stateMutability":"view"},{"type":"function","name":"getPubkeyRegMessageHash","inputs":[{"name":"operator","type":"address","internalType":"address"}],"outputs":[{"name":"","type":"tuple","internalType":"struct BN254.G1Point","components":[{"name":"X","type":"uint256","internalType":"uint256"},{"name":"Y","type":"uint256","internalType":"uint256"}]}],"stateMutability":"view"},{"type":"function","name":"getRegisteredPubkey","inputs":[{"name":"operator","type":"address","internalType":"address"}],"outputs":[{"name":"","type":"tuple","internalType":"struct BN254.G1Point","components":[{"name":"X","type":"uint256","internalType":"uint256"},{"name":"Y","type":"uint256","internalType":"uint256"}]},{"name":"","type":"bytes32","internalType":"bytes32"}],"stateMutability":"view"},{"type":"function","name":"initialize","inputs":[{"name":"_initialOwner","type":"address","internalType":"address"},{"name":"_whitelistManager","type":"address","internalType":"address"},{"name":"_vrfManagerAddress","type":"address","internalType":"address"}],"outputs":[],"stateMutability":"nonpayable"},{"type":"function","name":"operatorToPubkey","inputs":[{"name":"","type":"address","internalType":"address"}],"outputs":[{"name":"X","type":"uint256","internalType":"uint256"},{"name":"Y","type":"uint256","internalType":"uint256"}],"stateMutability":"view"},{"type":"function","name":"operatorToPubkeyHash","inputs":[{"name":"","type":"address","internalType":"address"}],"outputs":[{"name":"","type":"bytes32","internalType":"bytes32"}],"stateMutability":"view"},{"type":"function","name":"owner","inputs":[],"outputs":[{"name":"","type":"address","internalType":"address"}],"stateMutability":"view"},{"type":"function","name":"pubkeyHashToOperator","inputs":[{"name":"","type":"bytes32","internalType":"bytes32"}],"outputs":[{"name":"","type":"address","internalType":"address"}],"stateMutability":"view"},{"type":"function","name":"registerBLSPublicKey","inputs":[{"name":"operator","type":"address","internalType":"address"},{"name":"params","type":"tuple","internalType":"struct IBLSApkRegistry.PubkeyRegistrationParams","components":[{"name":"pubkeyRegistrationSignature","type":"tuple","internalType":"struct BN254.G1Point","components":[{"name":"X","type":"uint256","internalType":"uint256"},{"name":"Y","type":"uint256","internalType":"uint256"}]},{"name":"pubkeyG1","type":"tuple","internalType":"struct BN254.G1Point","components":[{"name":"X","type":"uint256","internalType":"uint256"},{"name":"Y","type":"uint256","internalType":"uint256"}]},{"name":"pubkeyG2","type":"tuple","internalType":"struct BN254.G2Point","components":[{"name":"X","type":"uint256[2]","internalType":"uint256[2]"},{"name":"Y","type":"uint256[2]","internalType":"uint256[2]"}]}]},{"name":"pubkeyRegistrationMessageHash","type":"tuple","internalType":"struct BN254.G1Point","components":[{"name":"X","type":"uint256","internalType":"uint256"},{"name":"Y","type":"uint256","internalType":"uint256"}]}],"outputs":[{"name":"","type":"bytes32","internalType":"bytes32"}],"stateMutability":"nonpayable"},{"type":"function","name":"registerOperator","inputs":[{"name":"operator","type":"address","internalType":"address"}],"outputs":[],"stateMutability":"nonpayable"},{"type":"function","name":"renounceOwnership","inputs":[],"outputs":[],"stateMutability":"nonpayable"},{"type":"function","name":"transferOwnership","inputs":[{"name":"newOwner","type":"address","internalType":"address"}],"outputs":[],"stateMutability":"nonpayable"},{"type":"function","name":"trySignatureAndApkVerification","inputs":[{"name":"msgHash","type":"bytes32","internalType":"bytes32"},{"name":"apk","type":"tuple","internalType":"struct BN254.G1Point","components":[{"name":"X","type":"uint256","internalType":"uint256"},{"name":"Y","type":"uint256","internalType":"uint256"}]},{"name":"apkG2","type":"tuple","internalType":"struct BN254.G2Point","components":[{"name":"X","type":"uint256[2]","internalType":"uint256[2]"},{"name":"Y","type":"uint256[2]","internalType":"uint256[2]"}]},{"name":"sigma","type":"tuple","internalType":"struct BN254.G1Point","components":[{"name":"X","type":"uint256","internalType":"uint256"},{"name":"Y","type":"uint256","internalType":"uint256"}]}],"outputs":[{"name":"pairingSuccessful","type":"bool","internalType":"bool"},{"name":"siganatureIsValid","type":"bool","internalType":"bool"}],"stateMutability":"view"},{"type":"function","name":"vrfManagerAddress","inputs":[],"outputs":[{"name":"","type":"address","internalType":"address"}],"stateMutability":"view"},{"type":"function","name":"whitelistManager","inputs":[],"outputs":[{"name":"","type":"address","internalType":"address"}],"stateMutability":"view"},{"type":"event","name":"EIP712DomainChanged","inputs":[],"anonymous":false},{"type":"event","name":"Initialized","inputs":[{"name":"version","type":"uint64","indexed":false,"internalType":"uint64"}],"anonymous":false},{"type":"event","name":"NewPubkeyRegistration","inputs":[{"name":"operator","type":"address","indexed":true,"internalType":"address"},{"name":"pubkeyG1","type":"tuple","indexed":false,"internalType":"struct BN254.G1Point","components":[{"name":"X","type":"uint256","internalType":"uint256"},{"name":"Y","type":"uint256","internalType":"uint256"}]},{"name":"pubkeyG2","type":"tuple","indexed":false,"internalType":"struct BN254.G2Point","components":[{"name":"X","type":"uint256[2]","internalType":"uint256[2]"},{"name":"Y","type":"uint256[2]","internalType":"uint256[2]"}]}],"anonymous":false},{"type":"event","name":"OperatorAdded","inputs":[{"name":"operator","type":"address","indexed":false,"internalType":"address"},{"name":"operatorId","type":"bytes32","indexed":false,"internalType":"bytes32"}],"anonymous":false},{"type":"event","name":"OperatorRemoved","inputs":[{"name":"operator","type":"address","indexed":false,"internalType":"address"},{"name":"operatorId","type":"bytes32","indexed":false,"internalType":"bytes32"}],"anonymous":false},{"type":"event","name":"OwnershipTransferred","inputs":[{"name":"previousOwner","type":"address","indexed":true,"internalType":"address"},{"name":"newOwner","type":"address","indexed":true,"internalType":"address"}],"anonymous":false},{"type":"error","name":"InvalidInitialization","inputs":[]},{"type":"error","name":"InvalidShortString","inputs":[]},{"type":"error","name":"NotInitializing","inputs":[]},{"type":"error","name":"OwnableInvalidOwner","inputs":[{"name":"owner","type":"address","internalType":"address"}]},{"type":"error","name":"OwnableUnauthorizedAccount","inputs":[{"name":"account","type":"address","internalType":"address"}]},{"type":"error","name":"StringTooLong","inputs":[{"name":"str","type":"string","internalType":"string"}]}],"bytecode":{"object":"0x6101606040523480156200001257600080fd5b50604080518082018252600e81526d424c5341706b526567697374727960901b6020808301919091528251808401909352600683526576302e302e3160d01b9083015290620000638260096200011b565b610120526200007481600a6200011b565b61014052815160208084019190912060e052815190820120610100524660a0526200010260e05161010051604080517f8b73c3c69bb8fe3d512ecc4cf759cc79239f7b179b0ffacaa9a75d522b39400f60208201529081019290925260608201524660808201523060a082015260009060c00160405160208183030381529060405280519060200120905090565b60805250503060c0526200011562000154565b6200043d565b60006020835110156200013b57620001338362000208565b90506200014e565b81620001488482620002fb565b5060ff90505b92915050565b7ff0c57e16840df040f15088dc2f81fe391c3923bec73e23a9662efc9c229c6a00805468010000000000000000900460ff1615620001a55760405163f92ee8a960e01b815260040160405180910390fd5b80546001600160401b0390811614620002055780546001600160401b0319166001600160401b0390811782556040519081527fc7f505b2f371ae2175ee4913f4499e1f2633a7b5936321eed1cdaeb6115181d29060200160405180910390a15b50565b600080829050601f815111156200023f578260405163305a27a960e01b8152600401620002369190620003c7565b60405180910390fd5b80516200024c8262000418565b179392505050565b634e487b7160e01b600052604160045260246000fd5b600181811c908216806200027f57607f821691505b602082108103620002a057634e487b7160e01b600052602260045260246000fd5b50919050565b601f821115620002f6576000816000526020600020601f850160051c81016020861015620002d15750805b601f850160051c820191505b81811015620002f257828155600101620002dd565b5050505b505050565b81516001600160401b0381111562000317576200031762000254565b6200032f816200032884546200026a565b84620002a6565b602080601f8311600181146200036757600084156200034e5750858301515b600019600386901b1c1916600185901b178555620002f2565b600085815260208120601f198616915b82811015620003985788860151825594840194600190910190840162000377565b5085821015620003b75787850151600019600388901b60f8161c191681555b5050505050600190811b01905550565b60006020808352835180602085015260005b81811015620003f757858101830151858201604001528201620003d9565b506000604082860101526040601f19601f8301168501019250505092915050565b80516020808301519190811015620002a05760001960209190910360031b1b16919050565b60805160a05160c05160e051610100516101205161014051612ab1620004986000396000611b6501526000611b330152600061204a0152600061202201526000611f7d01526000611fa701526000611fd10152612ab16000f3fe608060405234801561001057600080fd5b506004361061014c5760003560e01c80637ff81a87116100c3578063bf79ce581161007c578063bf79ce58146103bb578063c0c53b8b146103ce578063d8cf98ca146103e1578063de29fac0146103f4578063e8bb9ae614610414578063f2fde38b1461043d57600080fd5b80637ff81a87146102ec57806384b0196e146102ff5780638da5cb5b1461031a5780639feab8591461034a578063b417b3e61461037f578063b9305e37146103a857600080fd5b806326563b401161011557806326563b40146102285780632faea61c1461023b5780633682a4501461026e57806347f0c85314610283578063626e0db5146102a3578063715018a6146102e457600080fd5b8062a1f4cb146101515780631070de84146101925780631499b662146101c5578063171f1d5b146101d35780631af8d004146101fd575b600080fd5b61017861015f366004612348565b6004602052600090815260409020805460019091015482565b604080519283526020830191909152015b60405180910390f35b6101a56101a03660046124bd565b610450565b604080518351815260209384015193810193909352820152606001610189565b600554600654610178919082565b6101e66101e13660046125e8565b610781565b604080519215158352901515602083015201610189565b600154610210906001600160a01b031681565b6040516001600160a01b039091168152602001610189565b600054610210906001600160a01b031681565b61025e610249366004612348565b60086020526000908152604090205460ff1681565b6040519015158152602001610189565b61028161027c366004612348565b61090b565b005b610296610291366004612348565b6109a2565b6040516101899190612639565b6102b66102b1366004612650565b610a27565b6040805167ffffffffffffffff19909416845263ffffffff9283166020850152911690820152606001610189565b610281610a64565b6101a56102fa366004612348565b610a78565b610307610b47565b60405161018997969594939291906126af565b7f9016d09d72d40fdae2fd8ceac6b6234c7706214fd39c1cd1e609a0528c199300546001600160a01b0316610210565b6103717f2bd82124057f0913bc3b772ce7b83e8057c1ad1f3510fc83778be20f10ec5de681565b604051908152602001610189565b61037161038d366004612348565b6001600160a01b031660009081526002602052604090205490565b6102816103b6366004612748565b610b8d565b6103716103c9366004612784565b610c70565b6102816103dc3660046127e1565b61110a565b6102816103ef366004612348565b611254565b610371610402366004612348565b60026020526000908152604090205481565b610210610422366004612650565b6003602052600090815260409020546001600160a01b031681565b61028161044b366004612348565b6112eb565b604080518082019091526000808252602082015260004363ffffffff1684106104e65760405162461bcd60e51b815260206004820152603c60248201527f424c535369676e6174757265436865636b65722e636865636b5369676e61747560448201527f7265733a20696e76616c6964207265666572656e636520626c6f636b0000000060648201526084015b60405180910390fd5b6040805180820190915260008082526020820152835151606090156106055784515167ffffffffffffffff8111156105205761052061236a565b604051908082528060200260200182016040528015610549578160200160208202803683370190505b50905060005b8551518110156105ff576105918660000151828151811061057257610572612824565b6020026020010151805160009081526020918201519091526040902090565b8282815181106105a3576105a3612824565b6020026020010181815250506105f56105d8876000015183815181106105cb576105cb612824565b6020026020010151611329565b6040805180820190915260055481526006546020820152906113c4565b925060010161054f565b5061061f565b604080518082019091526005548152600654602082015291505b600080610636898589602001518a60400151610781565b91509150816106b95760405162461bcd60e51b815260206004820152604360248201527f424c535369676e6174757265436865636b65722e636865636b5369676e61747560448201527f7265733a2070616972696e6720707265636f6d70696c652063616c6c206661696064820152621b195960ea1b608482015260a4016104dd565b8061072c5760405162461bcd60e51b815260206004820152603960248201527f424c535369676e6174757265436865636b65722e636865636b5369676e61747560448201527f7265733a207369676e617475726520697320696e76616c69640000000000000060648201526084016104dd565b6000888460405160200161074192919061283a565b60408051601f19818403018152828252805160209182012083830190925260608b0151835260808b01519083015290975095505050505050935093915050565b60008060007f30644e72e131a029b85045b68181585d2833e84879b9709143e1f593f0000001878760000151886020015188600001516000600281106107c9576107c9612824565b60200201518951600160200201518a602001516000600281106107ee576107ee612824565b60200201518b6020015160016002811061080a5761080a612824565b602090810291909101518c518d8301516040516108679a99989796959401988952602089019790975260408801959095526060870193909352608086019190915260a085015260c084015260e08301526101008201526101200190565b6040516020818303038152906040528051906020012060001c61088a9190612876565b90506108fd6108a361089c8884611461565b86906113c4565b6108ab6114ea565b6108f36108e4856108de604080518082018252600080825260209182015281518083019092526001825260029082015290565b90611461565b6108ed8c6115aa565b906113c4565b886201d4c0611639565b909890975095505050505050565b6001546001600160a01b031633146109355760405162461bcd60e51b81526004016104dd90612898565b600061094082610a78565b50905061094c81611853565b6001600160a01b038216600081815260026020908152604091829020548251938452908301527f1012e33559dd6c66686972872c5e7d4953b63b46a144935dd149c29819b67d5b91015b60405180910390a15050565b6040805180820190915260008082526020820152610a21610a1c7f2bd82124057f0913bc3b772ce7b83e8057c1ad1f3510fc83778be20f10ec5de684604051602001610a019291909182526001600160a01b0316602082015260400190565b60405160208183030381529060405280519060200120611a33565b6115aa565b92915050565b60078181548110610a3757600080fd5b600091825260209091200154604081901b915063ffffffff600160c01b8204811691600160e01b90041683565b610a6c611a60565b610a766000611abb565b565b60408051808201909152600080825260208201526001600160a01b0382166000818152600460209081526040808320815180830183528154815260019091015481840152938352600290915281205490919080610b3d5760405162461bcd60e51b815260206004820152603e60248201527f424c5341706b52656769737472792e676574526567697374657265645075626b60448201527f65793a206f70657261746f72206973206e6f742072656769737465726564000060648201526084016104dd565b9094909350915050565b600060608060008060006060610b5b611b2c565b610b63611b5e565b60408051600080825260208201909252600f60f81b9b939a50919850469750309650945092509050565b6000546001600160a01b03163314610bb75760405162461bcd60e51b81526004016104dd90612898565b6001600160a01b038216610c455760405162461bcd60e51b815260206004820152604960248201527f424c5341706b52656769737472792e6164644f7252656d6f766572426c73526560448201527f67697374657257686974656c6973743a206f70657261746f722061646472657360648201526873206973207a65726f60b81b608482015260a4016104dd565b6001600160a01b03919091166000908152600860205260409020805460ff1916911515919091179055565b3360009081526008602052604081205460ff16610d095760405162461bcd60e51b81526020600482015260596024820152600080516020612a3c83398151915260448201527f4b65793a207468697320616464726573732068617665206e6f74207065726d6960648201527f7373696f6e20746f20726567697374657220626c73206b657900000000000000608482015260a4016104dd565b6000610d37610d203686900386016040870161290a565b805160009081526020918201519091526040902090565b90507fad3228b676f7d3cd4284a5443f17f1962b36e491b30a40b2405849e597ba5fb58103610dbe576040805162461bcd60e51b8152602060048201526024810191909152600080516020612a3c83398151915260448201527f4b65793a2063616e6e6f74207265676973746572207a65726f207075626b657960648201526084016104dd565b6001600160a01b03851660009081526002602052604090205415610e485760405162461bcd60e51b81526020600482015260476024820152600080516020612a3c83398151915260448201527f4b65793a206f70657261746f7220616c72656164792072656769737465726564606482015266207075626b657960c81b608482015260a4016104dd565b6000818152600360205260409020546001600160a01b031615610ecc5760405162461bcd60e51b81526020600482015260426024820152600080516020612a3c83398151915260448201527f4b65793a207075626c6963206b657920616c7265616479207265676973746572606482015261195960f21b608482015260a4016104dd565b604080516000917f30644e72e131a029b85045b68181585d2833e84879b9709143e1f593f000000191610f25918835916020808b0135928b01359160608c01359160808d019160c08e01918d35918e8201359101612926565b6040516020818303038152906040528051906020012060001c610f489190612876565b9050610fd6610f75610f66836108de368a90038a0160408b0161290a565b6108ed3689900389018961290a565b610f7d6114ea565b610fbf610fb0856108de604080518082018252600080825260209182015281518083019092526001825260029082015290565b6108ed368a90038a018a61290a565b610fd1368a90038a0160808b01612968565b611b8b565b6110715760405162461bcd60e51b815260206004820152606c6024820152600080516020612a3c83398151915260448201527f4b65793a2065697468657220746865204731207369676e61747572652069732060648201527f77726f6e672c206f7220473120616e642047322070726976617465206b65792060848201526b0c8de40dcdee840dac2e8c6d60a31b60a482015260c4016104dd565b6001600160a01b03861660008181526004602090815260408083208982018035825560608b01356001909201919091556002835281842087905586845260039092529182902080546001600160a01b0319168417905590517fe3fb6613af2e8930cf85d47fcf6db10192224a64c6cbe8023e0eee1ba3828041916110f99160808a0190612984565b60405180910390a250949350505050565b7ff0c57e16840df040f15088dc2f81fe391c3923bec73e23a9662efc9c229c6a008054600160401b810460ff16159067ffffffffffffffff166000811580156111505750825b905060008267ffffffffffffffff16600114801561116d5750303b155b90508115801561117b575080155b156111995760405163f92ee8a960e01b815260040160405180910390fd5b845467ffffffffffffffff1916600117855583156111c357845460ff60401b1916600160401b1785555b6111cc88611abb565b600080546001600160a01b03808a166001600160a01b0319928316179092556001805492891692909116919091179055611204611def565b831561124a57845460ff60401b19168555604051600181527fc7f505b2f371ae2175ee4913f4499e1f2633a7b5936321eed1cdaeb6115181d29060200160405180910390a15b5050505050505050565b6001546001600160a01b0316331461127e5760405162461bcd60e51b81526004016104dd90612898565b600061128982610a78565b50905061129d61129882611329565b611853565b6001600160a01b038216600081815260026020908152604091829020548251938452908301527fd7fc6178490520705355c7c3941d247da7890efa312e3366fe195e176c0e9e809101610996565b6112f3611a60565b6001600160a01b03811661131d57604051631e4fbdf760e01b8152600060048201526024016104dd565b61132681611abb565b50565b6040805180820190915260008082526020820152815115801561134e57506020820151155b1561136c575050604080518082019091526000808252602082015290565b604051806040016040528083600001518152602001600080516020612a5c833981519152846020015161139f9190612876565b6113b790600080516020612a5c8339815191526129c4565b905292915050565b919050565b60408051808201909152600080825260208201526113e0612257565b835181526020808501518183015283516040808401919091529084015160608301526000908360808460066107d05a03fa9050808061141b57fe5b50806114595760405162461bcd60e51b815260206004820152600d60248201526c1958cb5859190b59985a5b1959609a1b60448201526064016104dd565b505092915050565b604080518082019091526000808252602082015261147d612275565b835181526020808501519082015260408082018490526000908360608460076107d05a03fa905080806114ac57fe5b50806114595760405162461bcd60e51b815260206004820152600d60248201526c1958cb5b5d5b0b59985a5b1959609a1b60448201526064016104dd565b6114f2612293565b50604080516080810182527f198e9393920d483a7260bfb731fb5d25f1aa493335a9e71297e485b7aef312c28183019081527f1800deef121f1e76426a00665e5c4479674322d4f75edadd46debd5cd992f6ed6060830152815281518083019092527f275dc4a288d1afb3cbb1ac09187524c7db36395df7be3b99e673b13a075a65ec82527f1d9befcd05a5323e6da4d435f3b617cdb3af83285c2df711ef39c01571827f9d60208381019190915281019190915290565b6040805180820190915260008082526020820152600080806115da600080516020612a5c83398151915286612876565b90505b6115e681611eee565b9093509150600080516020612a5c833981519152828309830361161f576040805180820190915290815260208101919091529392505050565b600080516020612a5c8339815191526001820890506115dd565b60408051808201825286815260208082018690528251808401909352868352820184905260009182919061166b6122b8565b60005b60028110156118265760006116848260066129d7565b905084826002811061169857611698612824565b602002015151836116aa8360006129ee565b600c81106116ba576116ba612824565b60200201528482600281106116d1576116d1612824565b602002015160200151838260016116e891906129ee565b600c81106116f8576116f8612824565b602002015283826002811061170f5761170f612824565b60200201515151836117228360026129ee565b600c811061173257611732612824565b602002015283826002811061174957611749612824565b60200201515160016020020151836117628360036129ee565b600c811061177257611772612824565b602002015283826002811061178957611789612824565b6020020151602001516000600281106117a4576117a4612824565b6020020151836117b58360046129ee565b600c81106117c5576117c5612824565b60200201528382600281106117dc576117dc612824565b6020020151602001516001600281106117f7576117f7612824565b6020020151836118088360056129ee565b600c811061181857611818612824565b60200201525060010161166e565b5061182f6122d7565b60006020826101808560088cfa9151919c9115159b50909950505050505050505050565b604080518082019091526000808252602082015260075460008190036118e15760405162461bcd60e51b815260206004820152603760248201527f424c5341706b52656769737472792e5f70726f6365737341706b55706461746560448201527f3a2071756f72756d20646f6573206e6f7420657869737400000000000000000060648201526084016104dd565b604080518082019091526005548152600654602082015261190290846113c4565b8051600581905560208083018051600655600092835251905260408120919350600761192f6001856129c4565b8154811061193f5761193f612824565b6000918252602090912001805490915063ffffffff438116600160c01b909204160361197e5780546001600160c01b031916604083901c178155611a2c565b805463ffffffff438116600160e01b8181026001600160e01b039485161785556040805160608101825267ffffffffffffffff198816815260208101938452600081830181815260078054600181018255925291517fa66cc928b5edb82af9bd49922954155ab7b0942694bea4ce44661d9a8736c688909101805495519251871690940291909516600160c01b026001600160e01b0319949094169490911c93909317919091179092161790555b5050505050565b6000610a21611a40611f70565b8360405161190160f01b8152600281019290925260228201526042902090565b33611a927f9016d09d72d40fdae2fd8ceac6b6234c7706214fd39c1cd1e609a0528c199300546001600160a01b031690565b6001600160a01b031614610a765760405163118cdaa760e01b81523360048201526024016104dd565b7f9016d09d72d40fdae2fd8ceac6b6234c7706214fd39c1cd1e609a0528c19930080546001600160a01b031981166001600160a01b03848116918217845560405192169182907f8be0079c531659141344cd1fd0a4f28419497f9722a3daafe3b4186f6b6457e090600090a3505050565b6060611b597f0000000000000000000000000000000000000000000000000000000000000000600961209b565b905090565b6060611b597f0000000000000000000000000000000000000000000000000000000000000000600a61209b565b604080518082018252858152602080820185905282518084019093528583528201839052600091611bba6122b8565b60005b6002811015611d75576000611bd38260066129d7565b9050848260028110611be757611be7612824565b60200201515183611bf98360006129ee565b600c8110611c0957611c09612824565b6020020152848260028110611c2057611c20612824565b60200201516020015183826001611c3791906129ee565b600c8110611c4757611c47612824565b6020020152838260028110611c5e57611c5e612824565b6020020151515183611c718360026129ee565b600c8110611c8157611c81612824565b6020020152838260028110611c9857611c98612824565b6020020151516001602002015183611cb18360036129ee565b600c8110611cc157611cc1612824565b6020020152838260028110611cd857611cd8612824565b602002015160200151600060028110611cf357611cf3612824565b602002015183611d048360046129ee565b600c8110611d1457611d14612824565b6020020152838260028110611d2b57611d2b612824565b602002015160200151600160028110611d4657611d46612824565b602002015183611d578360056129ee565b600c8110611d6757611d67612824565b602002015250600101611bbd565b50611d7e6122d7565b60006020826101808560086107d05a03fa90508080611d9957fe5b5080611ddf5760405162461bcd60e51b81526020600482015260156024820152741c185a5c9a5b99cb5bdc18dbd9194b59985a5b1959605a1b60448201526064016104dd565b5051151598975050505050505050565b60075415611e585760405162461bcd60e51b815260206004820152603060248201527f424c5341706b52656769737472792e696e697469616c697a6541706b3a20617060448201526f6b20616c72656164792065786973747360801b60648201526084016104dd565b6040805160608101825260008082524363ffffffff9081166020840190815283850183815260078054600181018255945293517fa66cc928b5edb82af9bd49922954155ab7b0942694bea4ce44661d9a8736c6889093018054915194519390951c6001600160e01b031990911617600160c01b93821693909302929092176001600160e01b0316600160e01b9190921602179055565b60008080600080516020612a5c8339815191526003600080516020612a5c83398151915286600080516020612a5c833981519152888909090890506000611f64827f0c19139cb84c680a6e14116da060561765e05aa45a1c72a34f082305b61f3f52600080516020612a5c833981519152612147565b91959194509092505050565b6000306001600160a01b037f000000000000000000000000000000000000000000000000000000000000000016148015611fc957507f000000000000000000000000000000000000000000000000000000000000000046145b15611ff357507f000000000000000000000000000000000000000000000000000000000000000090565b611b59604080517f8b73c3c69bb8fe3d512ecc4cf759cc79239f7b179b0ffacaa9a75d522b39400f60208201527f0000000000000000000000000000000000000000000000000000000000000000918101919091527f000000000000000000000000000000000000000000000000000000000000000060608201524660808201523060a082015260009060c00160405160208183030381529060405280519060200120905090565b606060ff83146120b5576120ae836121f0565b9050610a21565b8180546120c190612a01565b80601f01602080910402602001604051908101604052809291908181526020018280546120ed90612a01565b801561213a5780601f1061210f5761010080835404028352916020019161213a565b820191906000526020600020905b81548152906001019060200180831161211d57829003601f168201915b5050505050905092915050565b6000806121526122d7565b61215a6122f5565b602080825281810181905260408201819052606082018890526080820187905260a082018690528260c08360056107d05a03fa9250828061219757fe5b50826121e55760405162461bcd60e51b815260206004820152601a60248201527f424e3235342e6578704d6f643a2063616c6c206661696c75726500000000000060448201526064016104dd565b505195945050505050565b606060006121fd8361222f565b604080516020808252818301909252919250600091906020820181803683375050509182525060208101929092525090565b600060ff8216601f811115610a2157604051632cd44ac360e21b815260040160405180910390fd5b60405180608001604052806004906020820280368337509192915050565b60405180606001604052806003906020820280368337509192915050565b60405180604001604052806122a6612313565b81526020016122b3612313565b905290565b604051806101800160405280600c906020820280368337509192915050565b60405180602001604052806001906020820280368337509192915050565b6040518060c001604052806006906020820280368337509192915050565b60405180604001604052806002906020820280368337509192915050565b80356001600160a01b03811681146113bf57600080fd5b60006020828403121561235a57600080fd5b61236382612331565b9392505050565b634e487b7160e01b600052604160045260246000fd5b6040805190810167ffffffffffffffff811182821017156123a3576123a361236a565b60405290565b60405160a0810167ffffffffffffffff811182821017156123a3576123a361236a565b604051601f8201601f1916810167ffffffffffffffff811182821017156123f5576123f561236a565b604052919050565b60006040828403121561240f57600080fd5b612417612380565b9050813581526020820135602082015292915050565b600082601f83011261243e57600080fd5b612446612380565b80604084018581111561245857600080fd5b845b8181101561247257803584526020938401930161245a565b509095945050505050565b60006080828403121561248f57600080fd5b612497612380565b90506124a3838361242d565b81526124b2836040840161242d565b602082015292915050565b6000806000606084860312156124d257600080fd5b83359250602080850135925060408086013567ffffffffffffffff808211156124fa57600080fd5b90870190610120828a03121561250f57600080fd5b6125176123a9565b82358281111561252657600080fd5b8301601f81018b1361253757600080fd5b8035838111156125495761254961236a565b612557878260051b016123cc565b818152878101945060069190911b82018701908c82111561257757600080fd5b918701915b8183101561259d5761258e8d846123fd565b8552938701939186019161257c565b8352506125ae90508a84870161247d565b858201526125bf8a60a085016123fd565b604082015260e08301356060820152610100830135608082015280955050505050509250925092565b60008060008061012085870312156125ff57600080fd5b8435935061261086602087016123fd565b925061261f866060870161247d565b915061262e8660e087016123fd565b905092959194509250565b815181526020808301519082015260408101610a21565b60006020828403121561266257600080fd5b5035919050565b6000815180845260005b8181101561268f57602081850181015186830182015201612673565b506000602082860101526020601f19601f83011685010191505092915050565b60ff60f81b881681526000602060e060208401526126d060e084018a612669565b83810360408501526126e2818a612669565b606085018990526001600160a01b038816608086015260a0850187905284810360c08601528551808252602080880193509091019060005b818110156127365783518352928401929184019160010161271a565b50909c9b505050505050505050505050565b6000806040838503121561275b57600080fd5b61276483612331565b91506020830135801515811461277957600080fd5b809150509250929050565b600080600083850361016081121561279b57600080fd5b6127a485612331565b9350610100601f19820112156127b957600080fd5b602085019250604061011f19820112156127d257600080fd5b50610120840190509250925092565b6000806000606084860312156127f657600080fd5b6127ff84612331565b925061280d60208501612331565b915061281b60408501612331565b90509250925092565b634e487b7160e01b600052603260045260246000fd5b8281526000602080830184516020860160005b828110156128695781518452928401929084019060010161284d565b5091979650505050505050565b60008261289357634e487b7160e01b600052601260045260246000fd5b500690565b6020808252604c908201527f424c5341706b52656769737472792e6f6e6c7952656c617965724d616e61676560408201527f723a2063616c6c6572206973206e6f74207468652072656c61796572206d616e60608201526b61676572206164647265737360a01b608082015260a00190565b60006040828403121561291c57600080fd5b61236383836123fd565b888152876020820152866040820152856060820152604085608083013760408460c0830137610100810192909252610120820152610140019695505050505050565b60006080828403121561297a57600080fd5b612363838361247d565b823581526020808401359082015260c0810160408381840137604080840160808401379392505050565b634e487b7160e01b600052601160045260246000fd5b81810381811115610a2157610a216129ae565b8082028115828204841417610a2157610a216129ae565b80820180821115610a2157610a216129ae565b600181811c90821680612a1557607f821691505b602082108103612a3557634e487b7160e01b600052602260045260246000fd5b5091905056fe424c5341706b52656769737472792e7265676973746572424c535075626c696330644e72e131a029b85045b68181585d97816a916871ca8d3c208c16d87cfd47a264697066735822122043af7cbf58b0e3be89403979ff15c55bcdd2bdf8e1ba680435725cbab59c527664736f6c63430008160033","linkReferences":{}},"methodIdentifiers":{"PUBKEY_REGISTRATION_TYPEHASH()":"9feab859","addOrRemoveBlsRegisterWhitelist(address,bool)":"b9305e37","apkHistory(uint256)":"626e0db5","blsRegisterWhitelist(address)":"2faea61c","checkSignatures(bytes32,uint256,((uint256,uint256)[],(uint256[2],uint256[2]),(uint256,uint256),uint256,uint256))":"1070de84","currentApk()":"1499b662","deregisterOperator(address)":"d8cf98ca","eip712Domain()":"84b0196e","getPubkeyHash(address)":"b417b3e6","getPubkeyRegMessageHash(address)":"47f0c853","getRegisteredPubkey(address)":"7ff81a87","initialize(address,address,address)":"c0c53b8b","operatorToPubkey(address)":"00a1f4cb","operatorToPubkeyHash(address)":"de29fac0","owner()":"8da5cb5b","pubkeyHashToOperator(bytes32)":"e8bb9ae6","registerBLSPublicKey(address,((uint256,uint256),(uint256,uint256),(uint256[2],uint256[2])),(uint256,uint256))":"bf79ce58","registerOperator(address)":"3682a450","renounceOwnership()":"715018a6","transferOwnership(address)":"f2fde38b","trySignatureAndApkVerification(bytes32,(uint256,uint256),(uint256[2],uint256[2]),(uint256,uint256))":"171f1d5b","vrfManagerAddress()":"1af8d004","whitelistManager()":"26563b40"},"storageLayout":{"storage":[{"astId":46281,"contract":"src/contracts/bls/BLSApkRegistry.sol:BLSApkRegistry","label":"whitelistManager","offset":0,"slot":"0","type":"t_address"},{"astId":46283,"contract":"src/contracts/bls/BLSApkRegistry.sol:BLSApkRegistry","label":"vrfManagerAddress","offset":0,"slot":"1","type":"t_address"},{"astId":46287,"contract":"src/contracts/bls/BLSApkRegistry.sol:BLSApkRegistry","label":"operatorToPubkeyHash","offset":0,"slot":"2","type":"t_mapping(t_address,t_bytes32)"},{"astId":46291,"contract":"src/contracts/bls/BLSApkRegistry.sol:BLSApkRegistry","label":"pubkeyHashToOperator","offset":0,"slot":"3","type":"t_mapping(t_bytes32,t_address)"},{"astId":46296,"contract":"src/contracts/bls/BLSApkRegistry.sol:BLSApkRegistry","label":"operatorToPubkey","offset":0,"slot":"4","type":"t_mapping(t_address,t_struct(G1Point)46672_storage)"},{"astId":46299,"contract":"src/contracts/bls/BLSApkRegistry.sol:BLSApkRegistry","label":"currentApk","offset":0,"slot":"5","type":"t_struct(G1Point)46672_storage"},{"astId":46303,"contract":"src/contracts/bls/BLSApkRegistry.sol:BLSApkRegistry","label":"apkHistory","offset":0,"slot":"7","type":"t_array(t_struct(ApkUpdate)46525_storage)dyn_storage"},{"astId":46307,"contract":"src/contracts/bls/BLSApkRegistry.sol:BLSApkRegistry","label":"blsRegisterWhitelist","offset":0,"slot":"8","type":"t_mapping(t_address,t_bool)"},{"astId":41592,"contract":"src/contracts/bls/BLSApkRegistry.sol:BLSApkRegistry","label":"_nameFallback","offset":0,"slot":"9","type":"t_string_storage"},{"astId":41594,"contract":"src/contracts/bls/BLSApkRegistry.sol:BLSApkRegistry","label":"_versionFallback","offset":0,"slot":"10","type":"t_string_storage"}],"types":{"t_address":{"encoding":"inplace","label":"address","numberOfBytes":"20"},"t_array(t_struct(ApkUpdate)46525_storage)dyn_storage":{"encoding":"dynamic_array","label":"struct IBLSApkRegistry.ApkUpdate[]","numberOfBytes":"32","base":"t_struct(ApkUpdate)46525_storage"},"t_bool":{"encoding":"inplace","label":"bool","numberOfBytes":"1"},"t_bytes24":{"encoding":"inplace","label":"bytes24","numberOfBytes":"24"},"t_bytes32":{"encoding":"inplace","label":"bytes32","numberOfBytes":"32"},"t_mapping(t_address,t_bool)":{"encoding":"mapping","key":"t_address","label":"mapping(address => bool)","numberOfBytes":"32","value":"t_bool"},"t_mapping(t_address,t_bytes32)":{"encoding":"mapping","key":"t_address","label":"mapping(address => bytes32)","numberOfBytes":"32","value":"t_bytes32"},"t_mapping(t_address,t_struct(G1Point)46672_storage)":{"encoding":"mapping","key":"t_address","label":"mapping(address => struct BN254.G1Point)","numberOfBytes":"32","value":"t_struct(G1Point)46672_storage"},"t_mapping(t_bytes32,t_address)":{"encoding":"mapping","key":"t_bytes32","label":"mapping(bytes32 => address)","numberOfBytes":"32","value":"t_address"},"t_string_storage":{"encoding":"bytes","label":"string","numberOfBytes":"32"},"t_struct(ApkUpdate)46525_storage":{"encoding":"inplace","label":"struct IBLSApkRegistry.ApkUpdate","numberOfBytes":"32","members":[{"astId":46520,"contract":"src/contracts/bls/BLSApkRegistry.sol:BLSApkRegistry","label":"apkHash","offset":0,"slot":"0","type":"t_bytes24"},{"astId":46522,"contract":"src/contracts/bls/BLSApkRegistry.sol:BLSApkRegistry","label":"updateBlockNumber","offset":24,"slot":"0","type":"t_uint32"},{"astId":46524,"contract":"src/contracts/bls/BLSApkRegistry.sol:BLSApkRegistry","label":"nextUpdateBlockNumber","offset":28,"slot":"0","type":"t_uint32"}]},"t_struct(G1Point)46672_storage":{"encoding":"inplace","label":"struct BN254.G1Point","numberOfBytes":"64","members":[{"astId":46669,"contract":"src/contracts/bls/BLSApkRegistry.sol:BLSApkRegistry","label":"X","offset":0,"slot":"0","type":"t_uint256"},{"astId":46671,"contract":"src/contracts/bls/BLSApkRegistry.sol:BLSApkRegistry","label":"Y","offset":0,"slot":"1","type":"t_uint256"}]},"t_uint256":{"encoding":"inplace","label":"uint256","numberOfBytes":"32"},"t_uint32":{"encoding":"inplace","label":"uint32","numberOfBytes":"4"}}},"id":41}