{"abi":[{"type":"function","name":"createProxy","inputs":[{"name":"implementation","type":"address","internalType":"address"},{"name":"dapplinkAddress","type":"address","internalType":"address"},{"name":"blsRegistry","type":"address","internalType":"address"}],"outputs":[{"name":"","type":"address","internalType":"address"}],"stateMutability":"nonpayable"},{"type":"event","name":"ProxyCreated","inputs":[{"name":"mintProxyAddress","type":"address","indexed":false,"internalType":"address"}],"anonymous":false},{"type":"error","name":"FailedDeployment","inputs":[]},{"type":"error","name":"InsufficientBalance","inputs":[{"name":"balance","type":"uint256","internalType":"uint256"},{"name":"needed","type":"uint256","internalType":"uint256"}]}],"bytecode":{"object":"0x608060405234801561001057600080fd5b5061025e806100206000396000f3fe608060405234801561001057600080fd5b506004361061002b5760003560e01c8063a556c07e14610030575b600080fd5b61004361003e3660046101e5565b61005f565b6040516001600160a01b03909116815260200160405180910390f35b60008061006b8561011c565b60405163c0c53b8b60e01b81523360048201526001600160a01b03868116602483015285811660448301529192509082169063c0c53b8b90606401600060405180830381600087803b1580156100c057600080fd5b505af11580156100d4573d6000803e3d6000fd5b50506040516001600160a01b03841681527efffc2da0b561cae30d9826d37709e9421c4725faebc226cbbb7ef5fc5e73499250602001905060405180910390a1949350505050565b600061012982600061012f565b92915050565b60008147101561015f5760405163cf47918160e01b81524760048201526024810183905260440160405180910390fd5b763d602d80600a3d3981f3363d3d373d3d3d363d730000008360601b60e81c176000526e5af43d82803e903d91602b57fd5bf38360781b176020526037600983f090506001600160a01b0381166101295760405163b06ebf3d60e01b815260040160405180910390fd5b80356001600160a01b03811681146101e057600080fd5b919050565b6000806000606084860312156101fa57600080fd5b610203846101c9565b9250610211602085016101c9565b915061021f604085016101c9565b9050925092509256fea2646970667358221220c5dec7210fc3ec6ac4f7508eec32df40c0db80477c0424951bf51a8e9301ffac64736f6c63430008160033","linkReferences":{}},"methodIdentifiers":{"createProxy(address,address,address)":"a556c07e"},"storageLayout":{"storage":[],"types":{}},"id":25}